:100000000C945C000C9479000C9479000C947900A9
:100010000C9479000C9479000C9479000C9479007C
:100020000C9479000C9479000C9479000C9479006C
:100030000C9479000C9479000C9479000C9479005C
:100040000C940B010C9479000C9479000C947900B9
:100050000C9479000C9479000C9479000C9479003C
:100060000C9479000C947900000000080002010053
:100070000003040700000000000000000000000072
:10008000250028002B0000000000240027002A0083
:10009000040404040404040402020202020203032E
:1000A0000303030301020408102040800102040836
:1000B000102001020408102011241FBECFEFD8E049
:1000C000DEBFCDBF11E0A0E0B1E0E2EFF3E002C09F
:1000D00005900D92A031B107D9F721E0A0E1B1E080
:1000E00001C01D92A931B207E1F70E9455010C949D
:1000F000F7010C94000090E0FC01EC55FF4F2491B7
:1001000080579F4FFC018491882399F090E0880FDD
:10011000991FFC01EA57FF4FA591B491FC01E458E7
:10012000FF4F859194918FB7F894EC91E22BEC936B
:100130008FBF089590E0FC01E859FF4F2491FC0126
:10014000EC55FF4F3491FC01E057FF4FE491EE2353
:10015000C9F0222339F0233001F1A8F4213019F13C
:10016000223029F1F0E0EE0FFF1FE458FF4FA59178
:10017000B4918FB7F894EC91611126C030953E236D
:100180003C938FBF08952730A9F02830C9F0243060
:1001900049F7809180008F7D03C0809180008F7728
:1001A00080938000DFCF84B58F7784BDDBCF84B5AB
:1001B0008F7DFBCF8091B0008F778093B000D2CF3E
:1001C0008091B0008F7DF9CF3E2BDACF3FB7F89406
:1001D0008091150190911601A0911701B09118011D
:1001E00026B5A89B05C02F3F19F00196A11DB11D92
:1001F0003FBFBA2FA92F982F8827BC01CD01620FCE
:10020000711D811D911D42E0660F771F881F991F88
:100210004A95D1F708951F920F920FB60F921124AD
:100220002F933F938F939F93AF93BF93809111012F
:1002300090911201A0911301B0911401309110011D
:1002400023E0230F2D3758F50196A11DB11D2093F2
:1002500010018093110190931201A0931301B093A8
:1002600014018091150190911601A0911701B09190
:1002700018010196A11DB11D8093150190931601DF
:10028000A0931701B0931801BF91AF919F918F91E7
:100290003F912F910F900FBE0F901F90189526E859
:1002A000230F0296A11DB11DD2CF789484B5826030
:1002B00084BD84B5816084BD85B5826085BD85B50A
:1002C000816085BD80916E00816080936E00109288
:1002D0008100809181008260809381008091810003
:1002E0008160809381008091800081608093800094
:1002F0008091B10084608093B1008091B0008160F2
:100300008093B00080917A00846080937A0080911D
:100310007A00826080937A0080917A008160809375
:100320007A0080917A00806880937A001092C100F0
:1003300088E00E947B008BE00E947B008CE00E94A2
:100340007B0090E0E92E90E0F92E00E011E060E003
:1003500088E00E949A00F801C0810E5F1F4FD8E02C
:100360006C2F661F6627661F8BE00E949A00CC0FD9
:1003700061E08CE00E949A0060E08CE00E949A00AC
:10038000D15071F761E088E00E949A000E94E60077
:100390004B015C0188EE482E83E0582E612C712CB5
:1003A0000E94E600681979098A099B09683E734032
:1003B00081059105A8F3F1E04F1A51086108710811
:1003C00028EE820E23E0921EA11CB11C41145104A0
:1003D0006104710429F7F1E000311F0709F0B7CF7C
:1003E000E114F10409F4B1CF0E940000AECFF894FB
:0203F000FFCF3D
:1003F20080004000200010000800040002000100FC
:00000001FF
