:100000000C945C000C946E000C946E000C946E00CA
:100010000C946E000C946E000C946E000C946E00A8
:100020000C946E000C946E000C946E000C946E0098
:100030000C946E000C946E000C946E000C946E0088
:100040000C9455010C946E000C946E000C946E0090
:100050000C946E000C946E000C946E000C946E0068
:100060000C946E000C946E00000000080002010069
:100070000003040700000000000000000000000072
:10008000250028002B0000000000240027002A0083
:10009000040404040404040402020202020203032E
:1000A0000303030301020408102040800102040836
:1000B000102001020408102011241FBECFEFD8E049
:1000C000DEBFCDBF21E0A0E0B1E001C01D92AA30AB
:1000D000B207E1F70E949F010C942A020C940000E1
:1000E00090E0FC01EC55FF4F249180579F4FFC019D
:1000F0008491882399F090E0880F991FFC01EA57BA
:10010000FF4FA591B491FC01E458FF4F8591949164
:100110008FB7F894EC91E22BEC938FBF089590E0A9
:10012000FC01E859FF4F2491FC01EC55FF4F34913D
:10013000FC01E057FF4FE491EE23C9F0222339F090
:10014000233001F1A8F4213019F1223029F1F0E037
:10015000EE0FFF1FE458FF4FA591B4918FB7F894AD
:10016000EC91611126C030953E233C938FBF0895DA
:100170002730A9F02830C9F0243049F78091800059
:100180008F7D03C0809180008F7780938000DFCFC8
:1001900084B58F7784BDDBCF84B58F7DFBCF809115
:1001A000B0008F778093B000D2CF8091B0008F7D68
:1001B000F9CF3E2BDACF3FB7F894809105019091AB
:1001C0000601A0910701B091080126B5A89B05C0C2
:1001D0002F3F19F00196A11DB11D3FBFBA2FA92FC6
:1001E000982F8827BC01CD01620F711D811D911DC3
:1001F00042E0660F771F881F991F4A95D1F708952F
:100200008F929F92AF92BF92CF92DF92EF92FF9226
:100210000E94DB004B015C0184EFC82EDD24D394E7
:10022000E12CF12C0E94DB00681979098A099B09ED
:10023000683E734081059105A8F321E0C21AD108F8
:10024000E108F10888EE880E83E0981EA11CB11C1D
:10025000C114D104E104F10429F7FF90EF90DF907D
:10026000CF90BF90AF909F908F9008950F931F9362
:10027000CF93DF93082F162FD42FC8E06D2F661F62
:100280006627661F802F0E948F00DD0F61E0812F9F
:100290000E948F0060E0812F0E948F00C15071F793
:1002A000DF91CF911F910F9108951F920F920FB67A
:1002B0000F9211242F933F938F939F93AF93BF93EC
:1002C0008091010190910201A0910301B09104017C
:1002D0003091000123E0230F2D3758F50196A11D21
:1002E000B11D209300018093010190930201A0931E
:1002F0000301B09304018091050190910601A09142
:100300000701B09108010196A11DB11D809305015F
:1003100090930601A0930701B0930801BF91AF919C
:100320009F918F913F912F910F900FBE0F901F9033
:10033000189526E8230F0296A11DB11DD2CF7894FF
:1003400084B5826084BD84B5816084BD85B58260DA
:1003500085BD85B5816085BD80916E00816080938B
:100360006E001092810080918100826080938100F4
:100370008091810081608093810080918000816004
:10038000809380008091B10084608093B10080915F
:10039000B00081608093B00080917A008460809387
:1003A0007A0080917A00826080937A0080917A004E
:1003B000816080937A0080917A00806880937A00CF
:1003C0001092C10088E00E9470008CE00E947000D2
:1003D0008BE00E94700080E0E82E80E0F82E109202
:1003E000090108E010E0C0910901CC0FC160C09381
:1003F000090160E088E00E948F004C2F6CE08BE0E8
:100400000E94360161E088E00E948F000E94000196
:100410000150110941F708E010E0C0910901CC0F2B
:10042000C093090160E088E00E948F004C2F6CE0CF
:100430008BE00E94360161E088E00E948F000E94FC
:1004400000010150110949F7E114F10441F20E9441
:080450000000C5CFF894FFCFB6
:00000001FF
